:020000040000fa
:080000000002040000000000f2
:020000040000fa
:100008009a0200009a0200009a0200009a02000078
:100018009a0200009a0200009a0200009a02000068
:100028009a0200009a0200009a020000b60300003b
:100038009a0200009a0200009a0200009a02000048
:100048009a0200009a0200009a0200009a02000038
:100058009a0200009a0200009a0200009a02000028
:100068009a0200009a0200009a0200009a02000018
:100078009a0200009a0200009a0200009a02000008
:100088009a0200009a0200009a0200009a020000f8
:100098009a0200009a0200009a0200009a020000e8
:1000a8009a0200009a0200009a0200009a020000d8
:1000b8009a0200009a0200009a0200009a020000c8
:1000c8009a0200009a0200009a0200009a020000b8
:1000d8009a0200009a0200009a0200009a020000a8
:1000e8009a0200009a0200009a0200009a02000098
:1000f8009a0200009a0200009a0200009a02000088
:100108009a0200009a0200009a0200009a02000077
:100118009a0200009a0200009a0200009a02000067
:100128009a0200009a0200009a0200009a02000057
:100138009a0200009a0200009a0200009a02000047
:100148009a0200009a0200009a0200009a02000037
:100158009a0200009a0200009a0200009a02000027
:100168009a0200009a0200009a0200009a02000017
:100178009a0200009a0200009a0200009a02000007
:100188009a0200009a0200009a0200009a020000f7
:100198009a0200009a0200009a0200009a020000e7
:1001a8009a0200009a0200009a0200009a020000d7
:1001b8009a0200009a0200009a0200009a020000c7
:1001c8009a0200009a0200009a0200009a020000b7
:1001d8009a0200009a0200009a0200009a020000a7
:1001e8009a0200009a0200009a0200009a02000097
:0801f8009a0200009a020000c7
:020000040000fa
:100208009a0200009a0200009a0200009a02000076
:100218009a0200009a0200009a0200009a02000066
:100228009a0200009a0200009a020000b603000039
:100238009a0200009a0200009a0200009a02000046
:100248009a0200009a0200009a0200009a02000036
:100258009a0200009a0200009a0200009a02000026
:100268009a0200009a0200009a0200009a02000016
:100278009a0200009a0200009a0200009a02000006
:100288009a0200009a0200009a0200009a020000f6
:100298009a0200009a0200009a0200009a020000e6
:1002a8009a0200009a0200009a0200009a020000d6
:1002b8009a0200009a0200009a0200009a020000c6
:1002c8009a0200009a0200009a0200009a020000b6
:1002d8009a0200009a0200009a0200009a020000a6
:1002e8009a0200009a0200009a0200009a02000096
:1002f8009a0200009a0200009a0200009a02000086
:100308009a0200009a0200009a0200009a02000075
:100318009a0200009a0200009a0200009a02000065
:100328009a0200009a0200009a0200009a02000055
:100338009a0200009a0200009a0200009a02000045
:100348009a0200009a0200009a0200009a02000035
:100358009a0200009a0200009a0200009a02000025
:100368009a0200009a0200009a0200009a02000015
:100378009a0200009a0200009a0200009a02000005
:100388009a0200009a0200009a0200009a020000f5
:100398009a0200009a0200009a0200009a020000e5
:1003a8009a0200009a0200009a0200009a020000d5
:1003b8009a0200009a0200009a0200009a020000c5
:1003c8009a0200009a0200009a0200009a020000b5
:1003d8009a0200009a0200009a0200009a020000a5
:1003e8009a0200009a0200009a0200009a02000095
:0803f8009a0200009a020000c5
:020000040000fa
:100400002f8020000ebf20000e0188000000000099
:10041000000020000000e000020032000001200087
:10042000200288000c000700c040200001002000ce
:1004300011000700000020000000e0000200320070
:100440000000020000000000140302000000000091
:100450000040da000000fe004440a9000000200037
:100460000000e0000300320000002000a00188002e
:100470004440a80000000600910188008000780038
:100480000000eb0015003700e280400032a0b4000d
:100490009101ba00e280400032a0b4009102ba009b
:1004a000e280400032a0b4000002eb00472bde00e7
:1004b000f507b200602ce10004003a000059eb009f
:1004c0008301e900fdff3e00040037006128e100e0
:1004d000010032000082eb00040007001101ba00a5
:1004e0000200e000e8ff3a00000006003159ba00bf
:1004f0008301e9000c0032002159ba008301e900b0
:10050000080032000400e00003003a00e2804000ee
:1005100032a0b400f5ff370011d9ba008301e90019
:10052000faff3a008100e800e180400032a0b40008
:10053000000006000040da000000fe008460a90010
:10054000e7006000f2ff2800cc08dd0023058000f2
:1005500003016100680060000281700071ff2f00dc
:1005600022058800a2048000828060008100700063
:10057000a1048800000006000021ef001108880097
:1005800020088800000006008560a900e7006000e0
:100590008580a900cc08dd0000017800f3ff280069
:1005a0000207b20044058000848161004411de002e
:1005b00083817000e800600043058800c308de0006
:1005c00083ff2f00e180600054058000848161007a
:1005d000cb08dd00830171000008b20053058800dc
:1005e000f27f2f004700de00a304800003016100ba
:1005f00061006000028170004c00dd00a2048800f0
:10060000f1ff2e00a404800084806000810070004f
:10061000a104880000000600421188000011880033
:08062000111188000000060022
:020000040000fa
:100628000800fa0020079800310798001100070019
:10063800c000200010079800c082a900c03921001e
:1006480055000700c482a80032000700c482a90030
:1006580040000700000f7800800f20009e007800ff
:10066800808f500001003400320007002900070085
:10067800f4ff37000000fa0090022000303a8800aa
:10068800203a80000060a1000070a100203a880094
:10069800213a800000fe2f0000806000203a880088
:1006a8001200200080072000a109200033742000d8
:1006b800804978008149780082497800120020003a
:1006c8006004200071052000237420008049780010
:1006d800814978008249780000000000113a8000c2
:1006e800000027008080600000002100808f5000fb
:1006f800faff3a0000000000113a800000022000d2
:10070800008060000000e000fbff32000080fa007b
:10071800000006000000fa000028ef0000000000ba
:10072800004080000000e000fdff34000080fa0077
:10073800000006000000fa000028ef00000000009a
:10074800004080000000e000fdff34000080fa0057
:10075800000006000000fa000000eb000080fa002c
:1007680000000600801f78003400f8000000200018
:10077800a00188000000fa008460a9000040800001
:100788000000e800004088000080fa003400f9000a
:100798004f007800004006000200fa00000f7800c1
:1007a8009e00780090f92d0071ff070090ff2f0040
:1007b80060ff07008460a9000080fa0000000600be
:1007c8000000fa0092002000d155230000c02c0040
:1007d8008fff070090f22f0069ff07002135800086
:1007e80000fe2f00008060000030a0002035880047
:1007f80031368000f00f2e0080806000003020002d
:1008080001007000303688000080fa000000060001
:020000040000fa
:1008180000080000020000000000000000000000c6
:020000040000fa
:0200000401f009
:04000000ffff0000fe
:020000040000fa
:0200000401f009
:04000800ffff0000f6
:020000040000fa
:0200000401f009
:04000c0078ff000079
:020000040000fa
:0200000401f009
:040010007fff00006e
:020000040000fa
:0200000401f009
:040014007fff00006a
:020000040000fa
:0200000401f009
:04001800ffff0000e6
:00000001FF
