:020000040000fa
:080000000002040000000000f2
:020000040000fa
:100008009a0200009a0200009a0200009a02000078
:100018009a0200009a0200009a0200009a02000068
:100028009a0200009a0200009a020000dc04000014
:100038009a0200009a0200009a0200009a02000048
:100048009a0200009a0200009a0200009a02000038
:100058009a0200009a0200009a0200009a02000028
:100068009a0200009a0200009a0200009a02000018
:100078009a0200009a0200009a0200009a02000008
:100088009a0200009a0200009a0200009a020000f8
:100098009a0200009a0200009a0200009a020000e8
:1000a8009a0200009a0200009a0200009a020000d8
:1000b8009a0200009a0200009a0200009a020000c8
:1000c8009a0200009a0200009a0200009a020000b8
:1000d8009a0200009a0200009a0200009a020000a8
:1000e8009a0200009a0200009a0200009a02000098
:1000f8009a0200009a0200009a0200009a02000088
:100108009a0200009a0200009a0200009a02000077
:100118009a0200009a0200009a0200009a02000067
:100128009a0200009a0200009a0200009a02000057
:100138009a0200009a0200009a0200009a02000047
:100148009a0200009a0200009a0200009a02000037
:100158009a0200009a0200009a0200009a02000027
:100168009a0200009a0200009a0200009a02000017
:100178009a0200009a0200009a0200009a02000007
:100188009a0200009a0200009a0200009a020000f7
:100198009a0200009a0200009a0200009a020000e7
:1001a8009a0200009a0200009a0200009a020000d7
:1001b8009a0200009a0200009a0200009a020000c7
:1001c8009a0200009a0200009a0200009a020000b7
:1001d8009a0200009a0200009a0200009a020000a7
:1001e8009a0200009a0200009a0200009a02000097
:0801f8009a0200009a020000c7
:020000040000fa
:100208009a0200009a0200009a0200009a02000076
:100218009a0200009a0200009a0200009a02000066
:100228009a0200009a0200009a020000dc04000012
:100238009a0200009a0200009a0200009a02000046
:100248009a0200009a0200009a0200009a02000036
:100258009a0200009a0200009a0200009a02000026
:100268009a0200009a0200009a0200009a02000016
:100278009a0200009a0200009a0200009a02000006
:100288009a0200009a0200009a0200009a020000f6
:100298009a0200009a0200009a0200009a020000e6
:1002a8009a0200009a0200009a0200009a020000d6
:1002b8009a0200009a0200009a0200009a020000c6
:1002c8009a0200009a0200009a0200009a020000b6
:1002d8009a0200009a0200009a0200009a020000a6
:1002e8009a0200009a0200009a0200009a02000096
:1002f8009a0200009a0200009a0200009a02000086
:100308009a0200009a0200009a0200009a02000075
:100318009a0200009a0200009a0200009a02000065
:100328009a0200009a0200009a0200009a02000055
:100338009a0200009a0200009a0200009a02000045
:100348009a0200009a0200009a0200009a02000035
:100358009a0200009a0200009a0200009a02000025
:100368009a0200009a0200009a0200009a02000015
:100378009a0200009a0200009a0200009a02000005
:100388009a0200009a0200009a0200009a020000f5
:100398009a0200009a0200009a0200009a020000e5
:1003a8009a0200009a0200009a0200009a020000d5
:1003b8009a0200009a0200009a0200009a020000c5
:1003c8009a0200009a0200009a0200009a020000b5
:1003d8009a0200009a0200009a0200009a020000a5
:1003e8009a0200009a0200009a0200009a02000095
:0803f8009a0200009a020000c5
:020000040000fa
:100400000f8120000ebf20000e01880000000000b8
:10041000000020000000e000020032000001200087
:10042000200288000c000700405520000100200039
:1004300011000700000020000000e0000200320070
:10044000000002000000000038030200000000006d
:100450000040da000000fe004440a9000000200037
:100460000000e0000300320000002000a00188002e
:100470004440a80000000600910188008000780038
:100480000000eb0015003700e280400032a0b4000d
:100490009101ba00e280400032a0b4009102ba009b
:1004a000e280400032a0b4000002eb00472bde00e7
:1004b000f507b200602ce10004003a000059eb009f
:1004c0008301e900fdff3e00040037006128e100e0
:1004d000010032000082eb00040007001101ba00a5
:1004e0000200e000e8ff3a00000006003159ba00bf
:1004f0008301e9000c0032002159ba008301e900b0
:10050000080032000400e00003003a00e2804000ee
:1005100032a0b400f5ff370011d9ba008301e90019
:10052000faff3a008100e800e180400032a0b40008
:10053000000006000040da000000fe0085a0a900cf
:10054000e7006000f2f82f00c408dd0053058000ca
:100550000301610068006000028170004300de005a
:100560005205880061006000f1ff2d004d00dd00a4
:10057000a20480008280600081007000a1048800d5
:10058000000006008460a900e7006000f2ff280078
:10059000cc08dd00230580000301610068006000d5
:1005a0000281700071ff2f0022058800a2048000e4
:1005b0008280600081007000a104880000000600b5
:1005c0000021ef00110888002008880000000600c4
:1005d0008560a900e70060008580a900cc08dd00e7
:1005e00000017800f3ff28000207b20044058000f4
:1005f000848161004411de0083817000e8006000a6
:1006000043058800c308de0083ff2f00e1806000ff
:100610005405800084816100cb08dd0083017100f6
:100620000008b20053058800f27f2f004700de006b
:10063000a30480000301610061006000028170007a
:100640004c00dd00a2048800f1ff2e00a40480000d
:100650008480600081007000a10488000000060012
:100660004211880000118800111188000000060066
:020000040000fa
:100670000400fa00000f78001107980091000700ad
:10068000c0392100d9000700f6000700c082a90088
:100690000428ef00120037002023a800000000000b
:1006a00000198000610060000000e000fcff3200e3
:1006b00000188000004088004040800080007800e2
:1006c000004080000080400040408800401f200023
:1006d000a4000700204080000000e80020408800bf
:1006e00020408000e30f5000ebff340040408000ca
:1006f0004280de004040880040408000740040009e
:10070000404088000428ef0009003700c482a80098
:100710004006200093000700c482a9004006200084
:1007200090000700204080000000e8002040880082
:1007300020408000e40f5000f4ff340000408000af
:10074000630060002040880002003700803e2000e7
:1007500084000700204080008000780001f0a7009e
:100760008100ea008100ea00cf08de0081407800c5
:100770000000e900204088000104e000f3ff3a0097
:100780000100370000000000401f20007500070036
:100790005140800000772100808f50000400340019
:1007a000504080004006b000504088001c003700d8
:1007b0005140800000fa2000808f50000400340077
:1007c00050408000800cb00050408800140037007a
:1007d0005140800080bb2000808f50000400340016
:1007e000504080007017b000504088000c00370067
:1007f00051408000007d2000808f500004003400b4
:1008000050408000e02eb0005040880004003700c7
:1008100051408000c05d20000080400050408800b2
:100820002023a80000000000001980006100600083
:100830000000e000fcff320000188000004088004b
:100840000040800030408800604080000000e000f0
:100850000a003a003140800040408000808f500004
:100860000c003400504080000019b0005040880057
:1008700000322000604088000600370060408000a1
:100880000000e00003003400604080000000e90048
:10089000604088005140800070408000808f500090
:1008a000b8ff3400c482a800800c20002d0007008f
:1008b000c482a9000a28ef0040062000604088009a
:1008c000b1ff37000000fa0090022000303a8800a3
:1008d000203a80000060a1000070a100203a88004a
:1008e000213a800000fe2f0000806000203a88003e
:1008f0001200200080072000a1092000337420008e
:1009000080497800814978008249780012002000ef
:1009100060042000710520002374200080497800c5
:10092000814978008249780000000000113a800077
:10093000000027008080600000002100808f5000b0
:10094000faff3a0000000000113a80000002200087
:10095000008060000000e000fbff32000080fa0031
:10096000000006000200fa00000f78000228ef00e5
:1009700000000000104080009e0f5000fdff390075
:100980000080fa00000006000000fa000228ef00d4
:1009900000000000104080000000e000fdff340077
:1009a0000080fa00000006000000fa000000eb00e2
:1009b0000080fa0000000600801f78003400f80074
:1009c00000002000a00188000000fa008460a90057
:1009d000104080000000e800104088000080fa000d
:1009e0003400f9004f007800004006000200fa00d1
:1009f000000f78009e00780090f92d00f0fe0700af
:100a000090ff2f00dffe07008460a9000080fa003d
:100a1000000006000000fa0092002000d1552300db
:100a200000c02c000eff070090f22f00e8fe070028
:100a30002135800000fe2f00008060000030a00003
:100a40002035880031368000f00f2e008080600055
:100a50000030200001007000303688000080fa006d
:100a6000000006000000fa002223ef0000f0290039
:100a7000201988001000200040198800000e2a006c
:100a80000019880060ff2f00acfe070041198000ac
:100a900000fe2f00008060006000b3004019880055
:080aa0000080fa0000000600ce
:020000040000fa
:100aa800000800000e000000000000000e08000012
:100ab8000200000002000000401f000000000000cb
:020000040000fa
:0200000401f009
:04000000ffff0000fe
:020000040000fa
:0200000401f009
:04000800ffff0000f6
:020000040000fa
:0200000401f009
:04000c0078ff000079
:020000040000fa
:0200000401f009
:040010007fff00006e
:020000040000fa
:0200000401f009
:040014007fff00006a
:020000040000fa
:0200000401f009
:04001800ffff0000e6
:00000001FF
